S00B00005443432E737265633F
S11300000C9434000C9451000C9451000C94510045
S11300100C9451000C9451000C9451000C94510018
S11300200C9451000C9451000C9451000C94530006
S11300300C9451000C9451000C9451000C945100F8
S11300400C9451000C9451000C9451000C945100E8
S11300500C9451000C9451000C9451000C945100D8
S11300600C9451000C94510011241FBECFEFD8E022
S1130070DEBFCDBF17E0A0E0B1E0ECE7F4E002C0E2
S113008005900D92A638B107D9F727E0A6E8B7E0A6
S113009001C01D92AE38B207E1F70E94DD000C9456
S11300A03C020C9400001F920F920FB60F92112481
S11300B02F933F934F935F936F937F938F939F936C
S11300C0AF93BF93EF93FF9380910001909101014F
S11300D0FC01EE0FFF1FEE0FFF1FEE0FFF1FE81BCB
S11300E0F90BEE5FFE4F848125B190E091958195E7
S11300F09109AC01422721E030E0058002C0220FC3
S1130100331F0A94E2F765B1CA0182239323862739
S113011085B98091000190910101FC01EE0FFF1F50
S1130120EE0FFF1FEE0FFF1FE81BF90BEE5FFE4FF4
S1130130608171818281938120E038EC4FE258E440
S11301400E9498010E94390160938A0770938B077B
S113015080938C0790938D071092850010928400F1
S113016080918A0790918B079093890080938800EF
S11301708091000190910101019690930101809377
S1130180000120918407309185072817390724F44A
S11301901092010110920001FF91EF91BF91AF9174
S11301A09F918F917F916F915F914F913F912F918B
S11301B00F900FBE0F901F901895F89484B18E6025
S11301C084B9A0E8B0E01C92E1E8F0E0108210925B
S11301D08500109284008FEF9FEF909387008093A7
S11301E086008C9188608C93808181608083EFE6A7
S11301F0F0E080818260808388EE93E090938900B0
S1130200809388007894EAE7F0E0808180688083B6
S1130210808187608083ECE7F0E080818064808364
S11302208081807F8083808183608083EAE7F0E03F
S113023080818064808380917A0086FDFCCF209148
S1130240780030917900ACECB0E10E942D0260930B
S113025086077093870780938807909389072FEF09
S113026083ED90E3215080409040E1F700C000000E
S1130270DDCF0E9440016894B1110C94920108955D
S11302800E94770188F09F5798F0B92F9927B751AA
S1130290B0F0E1F0660F771F881F991F1AF0BA9526
S11302A0C9F714C0B13091F00E949101B1E00895F2
S11302B00C949101672F782F8827B85F39F0B93FE4
S11302C0CCF3869577956795B395D9F73EF49095D9
S11302D08095709561957F4F8F4F9F4F089557FD7F
S11302E09058440F551F59F05F3F71F04795880FA0
S11302F097FB991F61F09F3F79F087950895121637
S113030013061406551FF2CF4695F1DF08C01616E2
S113031017061806991FF1CF869571056105089493
S11303200895E894BB2766277727CB0197F90895AA
S11303300E94AB010C941C020E940E0238F00E9431
S1130340150220F0952311F00C9405020C940B0275
S113035011240C9492010E946F0170F3959FC1F3D4
S1130360950F50E0551F629FF001729FBB27F00D5F
S1130370B11D639FAA27F00DB11DAA1F649F6627B4
S1130380B00DA11D661F829F2227B00DA11D621F03
S1130390739FB00DA11D621F839FA00D611D221FBD
S11303A0749F3327A00D611D231F849F600D211DA1
S11303B0822F762F6A2F11249F5750409AF0F1F024
S11303C088234AF0EE0FFF1FBB1F661F771F881F8D
S11303D091505040A9F79E3F510580F00C940502BE
S11303E00C9492015F3FE4F3983ED4F3869577959D
S11303F06795B795F795E7959F5FC1F7FE2B880F33
S1130400911D9695879597F9089597F99F6780E8C8
S113041070E060E008959FEF80EC089500240A9452
S11304201616170618060906089500240A941216CB
S11304301306140605060895092E0394000C11F4FE
S1130440882352F0BB0F40F4BF2B11F460FF04C0AB
S11304506F5F7F4F8F4F9F4F0895A29FB001B39F4F
S1130460C001A39F700D811D1124911DB29F700DB9
S10F0470811D1124911D0895F894FFCF04
S113047C0100768A933B0003005B9E833B000100E2
S113048C3713DB3A000200A60E723B010200BBD408
S113049CA53B01010040DE4C3A01030068A4B13BCA
S11304AC000300E1BE443B00010072561F3B0002F6
S11304BC00C705313B0102004ABE4C3C0101005B04
S11304CCEDFE3A00010003FB583B000200E6B3D9F1
S11304DC3A010200ED49603C010100302C623A0003
S11304EC010079C78C3B000200E9461A3A0102006C
S11304FC60276F3C0101005FBE6D39000200DE39DC
S113050C983B00010093F5023A010100A99A663C5C
S113051C0102002436AB3A000200C6C86D3B000150
S113052C005BE5CF3A010100CD58533C0102001E9B
S113053C991A3B000200F5B8313B000100AFE72DDE
S113054C3B0101008116BB3B010200616F243A019F
S113055C0300B903AF3B0003009AC95C3B000200E3
S113056C1B6EFA3A0001004C74713B01010085D9F1
S113057C9D3B010200AB31953A0103002E95923B51
S113058C0003001B998D3B0002003A2CA23A000197
S113059C004CBA983B010100C2657C3B010200EDA2
S11305AC83EA3A010300227A673B000300F575AA3B
S11305BC3B000200E91D383A0001008667B63B0196
S11305CC0100835C393B010200456C283B010300AC
S11305DCEFD9253B000300150E503C000200C273FA
S11305ECE73A010200BC49633B010300C782C23AEB
S11305FC000300E675633C0002003E95323A0102AA
S113060C007A76923B010300FDCDD53900030046F8
S113061C2B6F3C000200FDCDD5390103007A769294
S113062C3B0102003E95323A000200E675633C0041
S113063C0300C782C23A010300BC49633B010200B8
S113064CC273E73A000200150E503C000300EFD9C8
S113065C253B010300456C283B010200835C393BBC
S113066C0002008667B63B000300E91D383A00011E
S113067C00F575AA3B010100227A673B010300EDEA
S113068C83EA3A010200C2657C3B0002004CBA9832
S113069C3B0003003A2CA23A0001001B998D3B014C
S11306AC01002E95923B010300AB31953A010200F7
S11306BC85D99D3B0002004C74713B0003001B6EFA
S11306CCFA3A0001009AC95C3B010100B903AF3B43
S11306DC010300616F243A0102008116BB3B000246
S11306EC00AFE72D3B000300F5B8313B0001001EC1
S11306FC991A3B010100CD58533C0103005BE5CF33
S113070C3A000300C6C86D3B0001002436AB3A0125
S113071C0100A99A663C01030093F5023A00030018
S113072CDE39983B0001005FBE6D39010100602782
S113073C6F3C010300E9461A3A00010079C78C3B6F
S113074C000300302C623A010300ED49603C0101C6
S113075C00E6B3D93A00010003FB583B0003005BED
S113076CEDFE3A0103004ABE4C3C010100C70531C1
S113077C3B00010072561F3B000300E1BE443B01E9
S113078C030068A4B13B01010040DE4C3A010200B5
S113079CBBD4A53B000200A60E723B00010037132C
S11307ACDB3A0003005B9E833B010300768A933B98
S11307BC010100F9A7AF3A010200568C883B0002F4
S11307CC000F80973B000100A2B9883A0003008C0B
S11307DCE7A23B0103005669663B010100B36705C0
S11307EC3B0102003AFE513B0002005B7DB33B002F
S11307FC010055D5113A00030085B0BF3B0103003D
S113080CBF61223B010100803B3B3B0102002B44B6
S113081C0F3B000200279E563C0001008145B83A6C
S113082C010100CA76783B010200ADD0933A000274
S113083C00D5B7693C0001001BA5A6390101000DC8
S113084C119E3B010200AB4B3E38000200B71B6FFC
S113085C3C0001004B89493A0102009C2D873B0165
S113086C010030DB883A00010012175D3C000200E5
S113087CD2C6F03A0102009EDD4E3B010100BC27BA
S113088C0B3B000100CC69493C000200241B3C3B9F
S113089C0102005278163B010100740D503B00011B
S11308AC00A9CDAC3B00020060AE623A0003004CE0
S11308BC20A13B010300CD857C3B010200FA1CCC3A
S11308CC3A010100E8FB883B000100DC4A8E3B0046
S11308DC02008FA3BD3A000300766F833B01030033
S11308EC3D599C3B0102009D8B793A010100CAE3FE
S11308FCA73B000100B8465B3B00020012D30D3B42
S113090C0003000419473B0103000611463C010295
S113091C00DFCB163B000200B9F2443B0003006E2F
S113092CDC033B010300ACDD593C0102008E96A0B4
S113093C3A0002004DA9813B000300C9A8783A0192
S113094C030013CD6C3C0102008ACB0E390002006B
S113095CEB849F3B0003008ACB0E3901020013CDBC
S113096C6C3C010300C9A8783A0003004DA9813BF3
S113097C0002008E96A03A010200ACDD593C010342
S113098C006EDC033B000300B9F2443B000200DFC1
S113099CCB163B0102000611463C01030004194727
S11309AC3B00030012D30D3B000200B8465B3B0135
S11309BC0200CAE3A73B0103009D8B793A010100B5
S11309CC3D599C3B000100766F833B0003008FA3D1
S11309DCBD3A000200DC4A8E3B010200E8FB883B76
S11309EC010300FA1CCC3A010100CD857C3B0001CB
S11309FC004C20A13B00030060AE623A000200A947
S1130A0CCDAC3B010200740D503B0103005278162F
S1130A1C3B010100241B3C3B000100CC69493C0018
S1130A2C0300BC270B3B0103009EDD4E3B01010080
S1130A3CD2C6F03A00010012175D3C00030030DB13
S1130A4C883A0103009C2D873B0101004B89493AEC
S1130A5C000100B71B6F3C000300AB4B3E38010197
S1130A6C000D119E3B0103001BA5A639000300D504
S1130A7CB7693C000100ADD0933A010100CA767805
S1130A8C3B0103008145B83A000300279E563C0005
S1130A9C01002B440F3B010100803B3B3B01030055
S1130AACBF61223B00030085B0BF3B00010055D55C
S1130ABC113A0002005B7DB33B0102003AFE513B4C
S1130ACC010100B367053B0103005669663B000353
S1130ADC008CE7A23B000100A2B9883A0002000F87
S1130AEC80973B010200568C883B0101004B6A3213
S1090AFC3A010300ED00C5
S9030000FC
