S00B00005443432E737265633F
S11300000C9434000C9451000C9451000C94510045
S11300100C9451000C9451000C9451000C94510018
S11300200C9451000C9451000C9451000C94530006
S11300300C9451000C9451000C9451000C945100F8
S11300400C9451000C9451000C9451000C945100E8
S11300500C9451000C9451000C9451000C945100D8
S11300600C9451000C94510011241FBECFEFD8E022
S1130070DEBFCDBF15E0A0E0B1E0E4EAF4E002C0E9
S113008005900D92AC3CB107D9F725E0ACECB5E096
S113009001C01D92A43DB207E1F70E94C3000C9475
S11300A050020C9400001F920F920FB60F9211246D
S11300B02F933F934F935F936F937F938F939F936C
S11300C0AF93BF93EF93FF93E0910001F09101018F
S11300D0EE0FFF1FEE0FFF1FEE5FFE4F82818BB905
S11300E0E0910001F0910101EE0FFF1FEE0FFF1FE1
S11300F0EE5FFE4F60817181072E000C880B990B17
S11301000E9457012091CC053091CD054091CE0538
S11301105091CF050E94BB010E9426017093D30524
S11301206093D20510928500109284008091D205CC
S11301309091D30590938900809388008091000169
S11301409091010101969093010180930001209107
S1130150CA053091CB052817390724F41092010100
S113016010920001FF91EF91BF91AF919F918F91F8
S11301707F916F915F914F913F912F910F900FBE9F
S11301800F901F901895F8948AB18C638AB98AB13C
S113019082608AB91BB8A0E8B0E01C92E1E8F0E004
S11301A0108210928500109284008FEF9FEF90933D
S11301B08700809386008C9188608C938081816015
S11301C08083EFE6F0E080818260808388EE93E0B4
S11301D090938900809388007894EAE7F0E0808126
S11301E080688083808187608083ECE7F0E0808191
S11301F0806480838081807F808380818083EAE73C
S1130200F0E080818064808380917A0086FDFCCF59
S113021080917800909179009093D1058093D005D6
S113022080E090E0A0E8BFE38093CC059093CD05F7
S1130230A093CE05B093CF052FEF81EE94E021502B
S113024080409040E1F700C00000D9CF0E949A019D
S113025088F09F5798F0B92F9927B751B0F0E1F083
S1130260660F771F881F991F1AF0BA95C9F714C033
S1130270B13091F00E94B401B1E008950C94B4013E
S1130280672F782F8827B85F39F0B93FCCF386956C
S113029077956795B395D9F73EF4909580957095C9
S11302A061957F4F8F4F9F4F0895E89409C097FB46
S11302B03EF490958095709561957F4F8F4F9F4F39
S11302C09923A9F0F92F96E9BB279395F69587957D
S11302D077956795B795F111F8CFFAF4BB0F11F440
S11302E060FF1BC06F5F7F4F8F4F9F4F16C08823E7
S11302F011F096E911C0772321F09EE8872F762F1D
S113030005C0662371F096E8862F70E060E02AF05D
S11303109A95660F771F881FDAF7880F9695879549
S113032097F9089557FD9058440F551F59F05F3FB2
S113033071F04795880F97FB991F61F09F3F79F003
S113034087950895121613061406551FF2CF469585
S1130350F1DF08C0161617061806991FF1CF869507
S11303607105610508940895E894BB2766277727EB
S1130370CB0197F908950E94CE010C943F020E948C
S1130380310238F00E94380220F0952311F00C94C9
S113039028020C942E0211240C94B5010E9492019F
S11303A070F3959FC1F3950F50E0551F629FF001C4
S11303B0729FBB27F00DB11D639FAA27F00DB11DDD
S11303C0AA1F649F6627B00DA11D661F829F222766
S11303D0B00DA11D621F739FB00DA11D621F839FED
S11303E0A00D611D221F749F3327A00D611D231FC3
S11303F0849F600D211D822F762F6A2F11249F5711
S113040050409AF0F1F088234AF0EE0FFF1FBB1F13
S1130410661F771F881F91505040A9F79E3F5105D2
S113042080F00C9428020C94B5015F3FE4F3983EED
S1130430D4F3869577956795B795F795E7959F5F7C
S1130440C1F7FE2B880F911D9695879597F908950E
S113045097F99F6780E870E060E008959FEF80EC73
S1130460089500240A941616170618060906089516
S113047000240A9412161306140605060895092E7C
S11304800394000C11F4882352F0BB0F40F4BF2BEB
S113049011F460FF04C06F5F7F4F8F4F9F4F08952B
S10704A0F894FFCFFA
S11304A40100D8001C00DE0218009002080020019C
S11304B400005C0208003703180091001C0071035B
S11304C41800EE01080099010000BE010800B903F8
S11304D418004F001C00F60318004501080025020B
S11304E40000180108002D04180024001C006D04E9
S11304F4180099000800C10200006C00080091046F
S1130504180011001C00BC04180016001000150388
S1130514000042001000A104180017001C0061042C
S11305241800C200100071020000EF001000330430
S1130534180036001C00F50318006B011000DD01DF
S113054400009A011000B50318006D001C007A0322
S113055418000E0210005A01000040021000290382
S11305641800BB001C00F1021800A8021000EB00E4
S11305740000DE0210009002180020011C005C023E
S11305841800370310009100000071031000EE01FD
S1130594180099011C00BE011800B90310004F0093
S11305A40000F60310004501180025021C00180180
S11305B418002D041000240000006D04100099009C
S11305C41800C1021C006C001800910410001100F2
S11305D40000BC0410001600140015031C004200A3
S11305E41400A10410001700000061041000C200EC
S11305F4140071021C00EF001400330410003600D0
S11306040000F50310006B011400DD011C009A01C5
S11306141400B50310006D0000007A0310000E02EC
S113062414005A011C004002140029031000BB00EA
S11306340000F1021000A8021400EB001C00DE020A
S1130644140090021000200100005C021000370323
S1130654140091001C0071031400EE0110009901B0
S11306640000BE011000B90314004F001C00F6037F
S113067414004501100025020000180110002D0487
S1130684140024001C006D04140099001000C1021D
S113069400006C0010009104140011001C00BC0440
S11306A41400160004001503000042000400A10411
S11306B4140017001C0061041400C2000400710239
S11306C40000EF0004003304140036001C00F5039A
S11306D414006B010400DD0100009A010400B50359
S11306E414006D001C007A0314000E0204005A0165
S11306F400004002040029031400BB001C00F102A2
S11307041400A8020400EB000000DE0204009002BE
S1130714140020011C005C0214003703040091003F
S1130724000071030400EE01140099011C00BE01D1
S11307341400B90304004F000000F603040045014B
S1130744140025021C00180114002D0404002400C4
S113075400006D04040099001400C1021C006C0024
S113076414009104040011000000BC0404001600E9
S11307740C0015031C0042000C00A1040400170023
S1130784000061040400C2000C0071021C00EF00AC
S11307940C003304040036000000F50304006B016C
S11307A40C00DD011C009A010C00B50304006D006B
S11307B400007A0304000E020C005A011C004002DB
S11307C40C0029030400BB000000F1020400A80289
S11307D40C00EB001C00DE020C009002040020015B
S11307E400005C02040037030C0091001C00710338
S11307F40C00EE01040099010000BE010400B903D9
S11308040C004F001C00F6030C00450104002502F3
S11308140000180104002D040C0024001C006D04C5
S11308240C0099000400C10200006C00040091044F
S11308340C0011001C00BC040C0016000800150375
S1130844000042000800A1040C0017001C0061040D
S11308540C00C200080071020000EF000800330419
S11308640C0036001C00F5030C006B010800DD01CC
S113087400009A010800B5030C006D001C007A0303
S11308840C000E0208005A0100004002080029036B
S11308940C00BB001C00F1020C00A8020800EB00D1
S11308A40000DE02080090020C0020011C005C021F
S11308B40C00370308009100000071030800EE01E6
S11308C40C0099011C00BE010C00B90308004F0080
S11308D40000F603080045010C0025021C00180161
S11308E40C002D040800240000006D040800990085
S11308F40C00C1021C006C000C00910408001100DF
S11309040000BC0408001600180015031C00420073
S11309141800A10408001700000061040800C200C4
S1130924180071021C00EF0018003304080036009C
S11309340000F50308006B011800DD011C009A0196
S11309441800B50308006D0000007A0308000E02C5
S113095418005A011C004002180029030800BB00B7
S10F09640000F1020800A8021800310194
S9030000FC
