:100000000C9434000C9451000C9451000C94510049
:100010000C9451000C9451000C9451000C9451001C
:100020000C9451000C9451000C9451000C9453000A
:100030000C9451000C9451000C9451000C945100FC
:100040000C9451000C9451000C9451000C945100EC
:100050000C9451000C9451000C9451000C945100DC
:100060000C9451000C94510011241FBECFEFD8E026
:10007000DEBFCDBF13E0A0E0B1E0EEE7F6E002C0E6
:1000800005900D92AC3BB107D9F723E0ACEBB3E0A0
:1000900001C01D92A43CB207E1F70E94C3000C947A
:1000A0003D030C9400001F920F920FB60F92112483
:1000B0002F933F934F935F936F937F938F939F9370
:1000C000AF93BF93EF93FF93E0910001F091010193
:1000D000EE0FFF1FEE0FFF1FEE5FFE4F82818BB909
:1000E000E0910001F0910101EE0FFF1FEE0FFF1FE5
:1000F000EE5FFE4F60817181072E000C880B990B1B
:100100000E9444022091BC033091BD034091BE0384
:100110005091BF030E94D0020E9413027093C30348
:100120006093C20310928500109284008091C203F4
:100130009091C3039093890080938800809100017F
:10014000909101010196909301018093000120910B
:10015000BA033091BB032817390724F41092010128
:1001600010920001FF91EF91BF91AF919F918F91FC
:100170007F916F915F914F913F912F910F900FBEA3
:100180000F901F901895F8948AB18C638AB9A0E8F3
:10019000B0E01C92E1E8F0E010821092850010922D
:1001A00084008FEF9FEF90938700809386008C915F
:1001B00088608C93808181608083EFE6F0E08081AD
:1001C0008260808388EE93E090938900809388001A
:1001D0007894EAE7F0E0808180688083808187609E
:1001E0008083ECE7F0E08081806480838081807F81
:1001F00080838081808380E28BB9EAE7F0E08081B0
:100200008064808380917A0086FDFCCF60917800C5
:10021000709179007093C1036093C003072E000CA6
:10022000880B990B0E94440220E030E84AE254E433
:100230000E94A1019B01AC0160E070E080E290E4CB
:100240000E9434016093BC037093BD038093BE038E
:100250009093BF032FEF81EE94E0215080409040B7
:10026000E1F700C00000C9CF5058BB27AA270E9461
:100270004C010C9496020E94880238F00E948F0272
:1002800020F039F49F3F19F426F40C9485020EF403
:10029000E095E7FB0C947F02E92F0E94A70258F338
:1002A000BA17620773078407950720F079F4A6F55B
:1002B0000C94C9020EF4E0950B2EBA2FA02D0B0161
:1002C000B90190010C01CA01A0011124FF27591B9B
:1002D00099F0593F50F4503E68F11A16F040A22FA1
:1002E000232F342F4427585FF3CF46953795279512
:1002F000A795F0405395C9F77EF41F16BA0B620B11
:10030000730B840BBAF09150A1F0FF0FBB1F661F57
:10031000771F881FC2F70EC0BA0F621F731F841F9A
:1003200048F4879577956795B795F7959E3F08F0C0
:10033000B0CF9395880F08F09927EE0F9795879582
:1003400008950E94B5010C9496020E948F0258F005
:100350000E94880240F029F45F3F29F00C947F024C
:1003600051110C94CA020C9485020E94A70268F3F2
:100370009923B1F3552391F3951B550BBB27AA275E
:1003800062177307840738F09F5F5F4F220F331F98
:10039000441FAA1FA9F335D00E2E3AF0E0E832D060
:1003A00091505040E695001CCAF72BD0FE2F29D063
:1003B000660F771F881FBB1F261737074807AB0735
:1003C000B0E809F0BB0B802DBF01FF2793585F4FAA
:1003D0003AF09E3F510578F00C947F020C94CA02CB
:1003E0005F3FE4F3983ED4F3869577956795B7958C
:1003F000F7959F5FC9F7880F911D9695879597F997
:100400000895E1E0660F771F881FBB1F621773070F
:100410008407BA0720F0621B730B840BBA0BEE1F24
:1004200088F7E09508950E94AF0288F09F5798F0F2
:10043000B92F9927B751B0F0E1F0660F771F881FE9
:10044000991F1AF0BA95C9F714C0B13091F00E9403
:10045000C902B1E008950C94C902672F782F88274C
:10046000B85F39F0B93FCCF3869577956795B3952A
:10047000D9F73EF490958095709561957F4F8F4F99
:100480009F4F0895E89409C097FB3EF4909580959E
:10049000709561957F4F8F4F9F4F9923A9F0F92F4A
:1004A00096E9BB279395F695879577956795B795C8
:1004B000F111F8CFFAF4BB0F11F460FF1BC06F5FAE
:1004C0007F4F8F4F9F4F16C0882311F096E911C0C0
:1004D000772321F09EE8872F762F05C0662371F0E1
:1004E00096E8862F70E060E02AF09A95660F771FF5
:1004F000881FDAF7880F9695879597F9089597F9E9
:100500009F6780E870E060E008959FEF80EC0895B9
:1005100000240A94161617061806090608950024E2
:100520000A9412161306140605060895092E03945C
:10053000000C11F4882352F0BB0F40F4BF2B11F4D0
:1005400060FF04C06F5F7F4F8F4F9F4F089557FD2F
:100550009058440F551F59F05F3F71F04795880F31
:1005600097FB991F61F09F3F79F0879508951216C8
:1005700013061406551FF2CF4695F1DF08C0161674
:1005800017061806991FF1CF869571056105089425
:100590000895E894BB2766277727CB0197F908953C
:1005A0000E94E3020C9496020E94880238F00E9496
:1005B0008F0220F0952311F00C947F020C94850299
:1005C00011240C94CA020E94A70270F3959FC1F3F4
:1005D000950F50E0551F629FF001729FBB27F00DF1
:1005E000B11D639FAA27F00DB11DAA1F649F662746
:1005F000B00DA11D661F829F2227B00DA11D621F95
:10060000739FB00DA11D621F839FA00D611D221F4E
:10061000749F3327A00D611D231F849F600D211D32
:10062000822F762F6A2F11249F5750409AF0F1F0B5
:1006300088234AF0EE0FFF1FBB1F661F771F881F1E
:1006400091505040A9F79E3F510580F00C947F02D5
:100650000C94CA025F3FE4F3983ED4F386957795F5
:100660006795B795F795E7959F5FC1F7FE2B880FC4
:0E067000911D9695879597F90895F894FFCF00
:10067E00010093071800310708009B081800B50207
:10068E0008000E0100007C0208008D091800C4014C
:10069E000800000200008A0108007F0A1800D2003C
:1006AE000800F102000098000800510B180020000D
:1006BE0010006A03000059001000F80A180011011A
:1006CE001000780200004B011000060A1800030209
:1006DE001000870100003D02100014091800B80632
:1006EE00100023081800AA071000310718009B08F5
:1006FE001000B50218000E011C007C0218008D09B6
:10070E001000C401180000021C008A0118007F0AA4
:10071E001000D2001800F1021C0098001800510BB6
:10072E001000200014006A031C0059001400F80A7F
:10073E0010001101140078021C004B011400060A6F
:10074E0010000302140087011C003D02140014095E
:10075E001000B806140023081000AA071400310771
:10076E0010009B081400B50210000E0100007C0260
:10077E0010008D091400C4011000000200008A014F
:10078E0010007F0A1400D2001000F1020000980041
:10079E001000510B1400200004006A0300005900E1
:1007AE000400F80A140011010400780200004B0145
:1007BE000400060A140003020400870100003D0233
:1007CE00040014091400B806040023081400AA0734
:1007DE000400310714009B080400B50214000E013A
:1007EE001C007C0214008D090400C40114000002D8
:1007FE001C008A0114007F0A0400D2001400F102CA
:10080E001C0098001400510B040020000C006A0319
:10081E001C0059000C00F80A040011010C007802AB
:10082E001C004B010C00060A040003020C00870199
:10083E001C003D020C0014090400B8060C0023082D
:10084E000400AA070C00310704009B080C00B50237
:10085E0004000E0100007C0204008D090C00C4018E
:10086E000400000200008A0104007F0A0C00D2007E
:10087E000400F102000098000400510B0C0020004F
:10088E0008006A03000059000800F80A0C00110164
:10089E000800780200004B010800060A0C00030253
:1008AE000800870100003D02080014090C00B8067C
:1008BE00080023080C00AA07080031070C009B084B
:1008CE000800B5020C000E011C007C020C008D0904
:1008DE000800C4010C0000021C008A010C007F0AF3
:1008EE000800D2000C00F1021C0098000C00510B05
:1008FE000800200018006A031C0059001800F80AAE
:10090E0008001101180078021C004B011800060A9D
:10091E0008000302180087011C003D02180014098C
:0C092E000800B806180023080800AD00FF
:00000001FF
